{
  "_format": "hh-sol-artifact-1",
  "contractName": "GeoDataStorage",
  "sourceName": "contracts/GeoDataStorage.sol",
  "abi": [
    {
      "anonymous": false,
      "inputs": [
        {
          "indexed": true,
          "internalType": "uint256",
          "name": "id",
          "type": "uint256"
        },
        {
          "indexed": false,
          "internalType": "string",
          "name": "code",
          "type": "string"
        },
        {
          "indexed": false,
          "internalType": "int256",
          "name": "latitude",
          "type": "int256"
        },
        {
          "indexed": false,
          "internalType": "int256",
          "name": "longitude",
          "type": "int256"
        },
        {
          "indexed": false,
          "internalType": "uint256",
          "name": "elevation",
          "type": "uint256"
        },
        {
          "indexed": false,
          "internalType": "uint256",
          "name": "timestamp",
          "type": "uint256"
        }
      ],
      "name": "PointAdded",
      "type": "event"
    },
    {
      "inputs": [
        {
          "internalType": "string",
          "name": "_code",
          "type": "string"
        },
        {
          "internalType": "int256",
          "name": "_lat",
          "type": "int256"
        },
        {
          "internalType": "int256",
          "name": "_lon",
          "type": "int256"
        },
        {
          "internalType": "uint256",
          "name": "_elev",
          "type": "uint256"
        }
      ],
      "name": "addPoint",
      "outputs": [],
      "stateMutability": "nonpayable",
      "type": "function"
    },
    {
      "inputs": [
        {
          "internalType": "uint256",
          "name": "",
          "type": "uint256"
        }
      ],
      "name": "geoPoints",
      "outputs": [
        {
          "internalType": "uint256",
          "name": "id",
          "type": "uint256"
        },
        {
          "internalType": "string",
          "name": "code",
          "type": "string"
        },
        {
          "internalType": "int256",
          "name": "latitude",
          "type": "int256"
        },
        {
          "internalType": "int256",
          "name": "longitude",
          "type": "int256"
        },
        {
          "internalType": "uint256",
          "name": "elevation",
          "type": "uint256"
        },
        {
          "internalType": "uint256",
          "name": "timestamp",
          "type": "uint256"
        }
      ],
      "stateMutability": "view",
      "type": "function"
    },
    {
      "inputs": [
        {
          "internalType": "uint256",
          "name": "_id",
          "type": "uint256"
        }
      ],
      "name": "getPoint",
      "outputs": [
        {
          "internalType": "uint256",
          "name": "",
          "type": "uint256"
        },
        {
          "internalType": "string",
          "name": "",
          "type": "string"
        },
        {
          "internalType": "int256",
          "name": "",
          "type": "int256"
        },
        {
          "internalType": "int256",
          "name": "",
          "type": "int256"
        },
        {
          "internalType": "uint256",
          "name": "",
          "type": "uint256"
        },
        {
          "internalType": "uint256",
          "name": "",
          "type": "uint256"
        }
      ],
      "stateMutability": "view",
      "type": "function"
    },
    {
      "inputs": [],
      "name": "pointCount",
      "outputs": [
        {
          "internalType": "uint256",
          "name": "",
          "type": "uint256"
        }
      ],
      "stateMutability": "view",
      "type": "function"
    },
    {
      "inputs": [],
      "name": "totalPoints",
      "outputs": [
        {
          "internalType": "uint256",
          "name": "",
          "type": "uint256"
        }
      ],
      "stateMutability": "view",
      "type": "function"
    }
  ],
  "bytecode": "0x608060405234801561001057600080fd5b50610b5d806100206000396000f3fe608060405234801561001057600080fd5b50600436106100575760003560e01c8063567142be1461005c578063869f1c8e1461007a578063bf36e979146100af578063ca5610e9146100e4578063dc0704a214610102575b600080fd5b61006461011e565b6040516100719190610463565b60405180910390f35b610094600480360381019061008f91906104b4565b610128565b6040516100a69695949392919061058a565b60405180910390f35b6100c960048036038101906100c491906104b4565b61024b565b6040516100db9695949392919061058a565b60405180910390f35b6100ec61030f565b6040516100f99190610463565b60405180910390f35b61011c60048036038101906101179190610683565b610315565b005b6000600154905090565b6000606060008060008060008060008981526020019081526020016000206040518060c00160405290816000820154815260200160018201805461016b9061073a565b80601f01602080910402602001604051908101604052809291908181526020018280546101979061073a565b80156101e45780601f106101b9576101008083540402835291602001916101e4565b820191906000526020600020905b8154815290600101906020018083116101c757829003601f168201915b505050505081526020016002820154815260200160038201548152602001600482015481526020016005820154815250509050806000015181602001518260400151836060015184608001518560a001519650965096509650965096505091939550919395565b60006020528060005260406000206000915090508060000154908060010180546102749061073a565b80601f01602080910402602001604051908101604052809291908181526020018280546102a09061073a565b80156102ed5780601f106102c2576101008083540402835291602001916102ed565b820191906000526020600020905b8154815290600101906020018083116102d057829003601f168201915b5050505050908060020154908060030154908060040154908060050154905086565b60015481565b600160008154809291906103289061079a565b91905055506040518060c00160405280600154815260200186868080601f016020809104026020016040519081016040528093929190818152602001838380828437600081840152601f19601f8201169050808301925050505050505081526020018481526020018381526020018281526020014281525060008060015481526020019081526020016000206000820151816000015560208201518160010190816103d391906109bd565b5060408201518160020155606082015181600301556080820151816004015560a082015181600501559050506001547f2ea168d631ede56418e2a3c49be575396b7952d91b75cd5aaed1ac62d465b4f486868686864260405161043b96959493929190610acb565b60405180910390a25050505050565b6000819050919050565b61045d8161044a565b82525050565b60006020820190506104786000830184610454565b92915050565b600080fd5b600080fd5b6104918161044a565b811461049c57600080fd5b50565b6000813590506104ae81610488565b92915050565b6000602082840312156104ca576104c961047e565b5b60006104d88482850161049f565b91505092915050565b600081519050919050565b600082825260208201905092915050565b60005b8381101561051b578082015181840152602081019050610500565b60008484015250505050565b6000601f19601f8301169050919050565b6000610543826104e1565b61054d81856104ec565b935061055d8185602086016104fd565b61056681610527565b840191505092915050565b6000819050919050565b61058481610571565b82525050565b600060c08201905061059f6000830189610454565b81810360208301526105b18188610538565b90506105c0604083018761057b565b6105cd606083018661057b565b6105da6080830185610454565b6105e760a0830184610454565b979650505050505050565b600080fd5b600080fd5b600080fd5b60008083601f840112610617576106166105f2565b5b8235905067ffffffffffffffff811115610634576106336105f7565b5b6020830191508360018202830111156106505761064f6105fc565b5b9250929050565b61066081610571565b811461066b57600080fd5b50565b60008135905061067d81610657565b92915050565b60008060008060006080868803121561069f5761069e61047e565b5b600086013567ffffffffffffffff8111156106bd576106bc610483565b5b6106c988828901610601565b955095505060206106dc8882890161066e565b93505060406106ed8882890161066e565b92505060606106fe8882890161049f565b9150509295509295909350565b7f4e487b7100000000000000000000000000000000000000000000000000000000600052602260045260246000fd5b6000600282049050600182168061075257607f821691505b6020821081036107655761076461070b565b5b50919050565b7f4e487b7100000000000000000000000000000000000000000000000000000000600052601160045260246000fd5b60006107a58261044a565b91507fffffffffffffffffffffffffffffffffffffffffffffffffffffffffffffffff82036107d7576107d661076b565b5b600182019050919050565b7f4e487b7100000000000000000000000000000000000000000000000000000000600052604160045260246000fd5b60008190508160005260206000209050919050565b60006020601f8301049050919050565b600082821b905092915050565b6000600883026108737fffffffffffffffffffffffffffffffffffffffffffffffffffffffffffffffff82610836565b61087d8683610836565b95508019841693508086168417925050509392505050565b6000819050919050565b60006108ba6108b56108b08461044a565b610895565b61044a565b9050919050565b6000819050919050565b6108d48361089f565b6108e86108e0826108c1565b848454610843565b825550505050565b600090565b6108fd6108f0565b6109088184846108cb565b505050565b5b8181101561092c576109216000826108f5565b60018101905061090e565b5050565b601f8211156109715761094281610811565b61094b84610826565b8101602085101561095a578190505b61096e61096685610826565b83018261090d565b50505b505050565b600082821c905092915050565b600061099460001984600802610976565b1980831691505092915050565b60006109ad8383610983565b9150826002028217905092915050565b6109c6826104e1565b67ffffffffffffffff8111156109df576109de6107e2565b5b6109e9825461073a565b6109f4828285610930565b600060209050601f831160018114610a275760008415610a15578287015190505b610a1f85826109a1565b865550610a87565b601f198416610a3586610811565b60005b82811015610a5d57848901518255600182019150602085019450602081019050610a38565b86831015610a7a5784890151610a76601f891682610983565b8355505b6001600288020188555050505b505050505050565b82818337600083830152505050565b6000610aaa83856104ec565b9350610ab7838584610a8f565b610ac083610527565b840190509392505050565b600060a0820190508181036000830152610ae681888a610a9e565b9050610af5602083018761057b565b610b02604083018661057b565b610b0f6060830185610454565b610b1c6080830184610454565b97965050505050505056fea26469706673582212209981e86c8921af408685787d6d167d097aabfa6039cb3d03a3aca4072150f05264736f6c63430008130033",
  "linkReferences": {},
  "deployedLinkReferences": {}
}